:100000000C944D000C946C000C946C000C946C00DF
:100010000C946C000C946C000C946C000C946C00B0
:100020000C946C000C946C000C946C000C946C00A0
:100030000C946C000C94AA000C946C000C946C0052
:100040000C946C000C946C000C946C000C946C0080
:100050000C946C000C946C000C946C000C946C0070
:100060000C946C000C946C000C946C000C946C0060
:100070000C946C000C946C000C946C000C946C0050
:100080000C946C000C946C000C946C0016011E0116
:100090004301310160017001800111241FBECFEFC7
:1000A000D0E4DEBFCDBF11E0A0E0B1E0E8E9F3E0CD
:1000B00000E00BBF02C007900D92A231B107D9F743
:1000C00021E0A2E1B1E001C01D92AA31B207E1F73F
:1000D0000E94A7010C94CA010C940000CF93C82F72
:1000E0008A3019F48DE00E946E008091C00085FF77
:1000F000FCCFC093C60080E090E0CF9108958BE0E4
:10010000809381008DE790E0909389008093880030
:1001100082E080936F00109285001092840080919D
:10012000000190910101A0910201B091030180931F
:10013000120190931301A0931401B09315018FB78E
:1001400080688FBF089510928100089581E08093A8
:10015000160108951F920F920FB60F9211240BB63D
:100160000F922F933F934F935F936F937F938F9350
:100170009F93AF93BF93EF93FF9380911201909160
:100180001301A0911401B09115010197A109B109C2
:100190008093120190931301A0931401B093150161
:1001A000892B8A2B8B2B91F40E94A6008091000151
:1001B00090910101A0910201B0910301809312017D
:1001C00090931301A0931401B0931501FF91EF9147
:1001D000BF91AF919F918F917F916F915F914F915F
:1001E0003F912F910F900BBE0F900FBE0F901F905D
:1001F0001895609300017093010180930201909320
:100200000301609312017093130180931401909382
:1002100015010895E0911701F0911801E730F105FB
:1002200008F07CC0EA5BFF4F0C94C10115B881E077
:1002300090E0909318018093170174C0009907C053
:1002400084E090E0909318018093170106C082E04B
:1002500090E0909318018093170181E08093190139
:1002600061C0009907C084E090E0909318018093EA
:10027000170106C082E090E0909318018093170167
:10028000109219014FC0009907C084E090E090934C
:1002900018018093170146C080911901811107C090
:1002A00081E090E090931801809317013BC081306A
:1002B000C9F583E090E0909318018093170132C054
:1002C000009907C084E090E0909318018093170193
:1002D00029C085E090E0909318018093170122C017
:1002E000009907C086E090E0909318018093170171
:1002F00019C085E090E0909318018093170112C017
:10030000009907C086E090E0909318018093170150
:1003100009C0109218011092170104C01092180120
:100320001092170180911701909118018230910568
:1003300041F08330910541F0019741F481E085B9A6
:10034000089582E085B9089584E085B9089511B8CB
:100350008FEF82B984B915B86CE271E080E090E06B
:100360000E94F9000E947F0010921801109217015C
:100370000E940A01809116018823E1F31092160170
:10038000F7CFEE0FFF1F0024001C0BBE0790F69165
:08039000E02D0994F894FFCF61
:100398000100000000000002000000006E000000E4
:0203A800000053
:00000001FF
