:100000000C9446000C9465000C9465000C946500FB
:100010000C9465000C9465000C9465000C946500CC
:100020000C9465000C9465000C9465000C946500BC
:100030000C9465000C94A3000C9465000C9465006E
:100040000C9465000C9465000C9465000C9465009C
:100050000C9465000C9465000C9465000C9465008C
:100060000C9465000C9465000C9465000C9465007C
:100070000C9465000C9465000C9465000C9465006C
:100080000C9465000C9465000C94650011241FBE4F
:10009000CFEFD0E4DEBFCDBF11E0A0E0B1E0ECEDEA
:1000A000F3E000E00BBF02C007900D92A231B10750
:1000B000D9F721E0A2E1B1E001C01D92AA31B20757
:1000C000E1F70E94D1010C94EC010C940000CF9355
:1000D000C82F8A3019F48DE00E9467008091C0001B
:1000E00085FFFCCFC093C60080E090E0CF910895DB
:1000F0008BE0809381008DE790E09093890080935E
:10010000880082E080936F00109285001092840036
:100110008091000190910101A0910201B091030131
:100120008093120190931301A0931401B0931501D1
:100130008FB780688FBF089510928100089581E085
:100140008093160108951F920F920FB60F921124FB
:100150000BB60F922F933F934F935F936F937F93C1
:100160008F939F93AF93BF93EF93FF93809112016F
:1001700090911301A0911401B09115010197A1096B
:10018000B1098093120190931301A0931401B093CD
:100190001501892B8A2B8B2B91F40E949F00809153
:1001A000000190910101A0910201B091030180939F
:1001B000120190931301A0931401B0931501FF91C4
:1001C000EF91BF91AF919F918F917F916F915F91CF
:1001D0004F913F912F910F900BBE0F900FBE0F903C
:1001E0001F901895609300017093010180930201A4
:1001F0009093030160931201709313018093140193
:100200009093150108958091170190911801823003
:10021000910509F43FC028F4009769F0019791F027
:1002200092C08430910509F469C008F460C0059754
:1002300009F46BC088C081E090E09093180180932E
:10024000170185C0009907C083E090E090931801E2
:10025000809317017CC0019907C084E090E09093DF
:1002600018018093170173C080B190E0809590953C
:1002700083709927039739F485E090E090931801F3
:100280008093170164C081E090E0909318018093FF
:1002900017015DC080B190E080959095837099279B
:1002A000019741F080B190E08095909583709927F7
:1002B000029739F482E090E090931801809317013F
:1002C00046C080B190E08095909583709927039700
:1002D00039F485E090E0909318018093170137C0BE
:1002E00081E090E0909318018093170130C082E084
:1002F00090E0909318018093170129C082E090E06C
:10030000909318018093170122C080B190E08095EE
:10031000909583709927019741F080B190E0809586
:10032000909583709927029739F485E090E0909337
:100330001801809317010BC081E090E090931801A1
:100340008093170104C01092180110921701809138
:100350001701909118018330910569F018F4892BE9
:1003600039F008958430910581F00597C1F0089522
:1003700087E085B9089585B1893020F485B18F5F14
:1003800085B9089585B185B9089585B1882321F08F
:1003900085B1815085B9089585B185B9089515B89D
:1003A000089511B88FEF82B984B987E085B964E602
:1003B00070E080E090E00E94F2000E9478001092CD
:1003C0001801109217010E940301809116018823E1
:0C03D000E1F310921601F7CFF894FFCF74
:1003DC0001000000000000020000000067000000A7
:0203EC0000000F
:00000001FF
