:100000000C944D000C946C000C946C000C946C00DF
:100010000C946C000C946C000C946C000C946C00B0
:100020000C946C000C946C000C946C000C946C00A0
:100030000C946C000C94AA000C946C000C946C0052
:100040000C946C000C946C000C946C000C946C0080
:100050000C946C000C946C000C946C000C946C0070
:100060000C946C000C946C000C946C000C946C0060
:100070000C946C000C946C000C946C000C946C0050
:100080000C946C000C946C000C946C0015011D0118
:10009000350125013D012D01450111241FBECFEF82
:1000A000D0E4DEBFCDBF11E0A0E0B1E0E0E3F3E0DB
:1000B00000E00BBF02C007900D92A231B107D9F743
:1000C00021E0A2E1B1E001C01D92A931B207E1F740
:1000D0000E9473010C9496010C940000CF93C82FDA
:1000E0008A3019F48DE00E946E008091C00085FF77
:1000F000FCCFC093C60080E090E0CF9108958BE0E4
:10010000809381008DE790E0909389008093880030
:1001100082E080936F00109285001092840080919D
:10012000000190910101A0910201B091030180931F
:10013000120190931301A0931401B09315018FB78E
:1001400080688FBF089510928100089581E08093A8
:10015000160108951F920F920FB60F9211240BB63D
:100160000F922F933F934F935F936F937F938F9350
:100170009F93AF93BF93EF93FF9380911201909160
:100180001301A0911401B09115010197A109B109C2
:100190008093120190931301A0931401B093150161
:1001A000892B8A2B8B2B91F40E94A6008091000151
:1001B00090910101A0910201B0910301809312017D
:1001C00090931301A0931401B0931501FF91EF9147
:1001D000BF91AF919F918F917F916F915F914F915F
:1001E0003F912F910F900BBE0F900FBE0F901F905D
:1001F0001895609300017093010180930201909320
:100200000301609312017093130180931401909382
:1002100015010895E0911701F0911801E730F105FB
:10022000D8F5EA5BFF4F0C948D0115B881E090E0A2
:1002300090931801809317012FC080B183E090E064
:10024000909318018093170127C080B185E090E05A
:1002500090931801809317011FC080B181E090E056
:10026000909318018093170117C080B182E090E04D
:1002700090931801809317010FC080B184E090E043
:10028000909318018093170107C080B186E090E039
:100290009093180180931701809117019091180194
:1002A0008330910589F030F48130910551F0029747
:1002B00089F008958530910551F078F0069781F026
:1002C000089581E085B9089582E085B9089584E0B4
:1002D00085B9089581E085B9089582E085B90895CA
:1002E00084E085B9089511B88FEF82B984B915B843
:1002F0006CE271E080E090E00E94F9000E947F00D3
:1003000010921801109217010E940A0180911601A3
:100310008823E1F310921601F7CFEE0FFF1F0024A0
:10032000001C0BBE0790F691E02D0994F894FFCFC6
:100330000100000000000002000000006E0000004C
:020340000000BB
:00000001FF
